{
  "_format": "hh-sol-artifact-1",
  "contractName": "BoxRegistry",
  "sourceName": "contracts/BoxRegistry.sol",
  "abi": [
    {
      "inputs": [],
      "stateMutability": "payable",
      "type": "constructor"
    },
    {
      "anonymous": false,
      "inputs": [
        {
          "indexed": false,
          "internalType": "contract Box",
          "name": "",
          "type": "address"
        }
      ],
      "name": "BoxCreation",
      "type": "event"
    },
    {
      "anonymous": false,
      "inputs": [
        {
          "indexed": false,
          "internalType": "contract Box[]",
          "name": "",
          "type": "address[]"
        }
      ],
      "name": "BoxList",
      "type": "event"
    },
    {
      "stateMutability": "payable",
      "type": "fallback"
    },
    {
      "inputs": [],
      "name": "createBox",
      "outputs": [],
      "stateMutability": "nonpayable",
      "type": "function"
    },
    {
      "inputs": [],
      "name": "getUserBoxes",
      "outputs": [
        {
          "internalType": "contract Box[]",
          "name": "",
          "type": "address[]"
        }
      ],
      "stateMutability": "nonpayable",
      "type": "function"
    },
    {
      "inputs": [
        {
          "internalType": "address",
          "name": "owner",
          "type": "address"
        },
        {
          "internalType": "uint256",
          "name": "index",
          "type": "uint256"
        }
      ],
      "name": "removeBox",
      "outputs": [],
      "stateMutability": "nonpayable",
      "type": "function"
    },
    {
      "inputs": [
        {
          "internalType": "address",
          "name": "",
          "type": "address"
        },
        {
          "internalType": "uint256",
          "name": "",
          "type": "uint256"
        }
      ],
      "name": "userBoxes",
      "outputs": [
        {
          "internalType": "contract Box",
          "name": "",
          "type": "address"
        }
      ],
      "stateMutability": "view",
      "type": "function"
    },
    {
      "stateMutability": "payable",
      "type": "receive"
    }
  ],
  "bytecode": "0x60806040526110cf806100136000396000f3fe6080604052600436106100435760003560e01c80634a7f331c1461004c5780637fa767bc146100895780639d72d71d146100a0578063e044b85c146100c95761004a565b3661004a57005b005b34801561005857600080fd5b50610073600480360381019061006e919061073c565b6100f4565b60405161008091906107db565b60405180910390f35b34801561009557600080fd5b5061009e610142565b005b3480156100ac57600080fd5b506100c760048036038101906100c2919061073c565b610296565b005b3480156100d557600080fd5b506100de610557565b6040516100eb91906108b4565b60405180910390f35b6000602052816000526040600020818154811061011057600080fd5b906000526020600020016000915091509054906101000a900473ffffffffffffffffffffffffffffffffffffffff1681565b6000306000803373ffffffffffffffffffffffffffffffffffffffff1673ffffffffffffffffffffffffffffffffffffffff1681526020019081526020016000208054905060405161019390610695565b61019e929190610906565b604051809103906000f0801580156101ba573d6000803e3d6000fd5b5090506000803373ffffffffffffffffffffffffffffffffffffffff1673ffffffffffffffffffffffffffffffffffffffff168152602001908152602001600020819080600181540180825580915050600190039060005260206000200160009091909190916101000a81548173ffffffffffffffffffffffffffffffffffffffff021916908373ffffffffffffffffffffffffffffffffffffffff1602179055507fbcc4c5c2952255c6a081809e5a6d02a6e2a20a67a10d227d125cef3d2ea712318160405161028b91906107db565b60405180910390a150565b6000808373ffffffffffffffffffffffffffffffffffffffff1673ffffffffffffffffffffffffffffffffffffffff16815260200190815260200160002081815481106102e6576102e561092f565b5b9060005260206000200160009054906101000a900473ffffffffffffffffffffffffffffffffffffffff1673ffffffffffffffffffffffffffffffffffffffff163373ffffffffffffffffffffffffffffffffffffffff161461034857600080fd5b60008190505b60016000808573ffffffffffffffffffffffffffffffffffffffff1673ffffffffffffffffffffffffffffffffffffffff1681526020019081526020016000208054905061039c919061098d565b8110156104cf576000808473ffffffffffffffffffffffffffffffffffffffff1673ffffffffffffffffffffffffffffffffffffffff1681526020019081526020016000206001826103ee91906109c1565b815481106103ff576103fe61092f565b5b9060005260206000200160009054906101000a900473ffffffffffffffffffffffffffffffffffffffff166000808573ffffffffffffffffffffffffffffffffffffffff1673ffffffffffffffffffffffffffffffffffffffff168152602001908152602001600020828154811061047a5761047961092f565b5b9060005260206000200160006101000a81548173ffffffffffffffffffffffffffffffffffffffff021916908373ffffffffffffffffffffffffffffffffffffffff160217905550808060010191505061034e565b506000808373ffffffffffffffffffffffffffffffffffffffff1673ffffffffffffffffffffffffffffffffffffffff16815260200190815260200160002080548061051e5761051d6109f5565b5b6001900381819060005260206000200160006101000a81549073ffffffffffffffffffffffffffffffffffffffff021916905590555050565b60607f7c89a2208887d096eb1beafae9c95cccb7f4d19b91b2daeee27bfe18e1d82b4c6000803373ffffffffffffffffffffffffffffffffffffffff1673ffffffffffffffffffffffffffffffffffffffff1681526020019081526020016000206040516105c59190610b10565b60405180910390a16000803373ffffffffffffffffffffffffffffffffffffffff1673ffffffffffffffffffffffffffffffffffffffff16815260200190815260200160002080548060200260200160405190810160405280929190818152602001828054801561068b57602002820191906000526020600020905b8160009054906101000a900473ffffffffffffffffffffffffffffffffffffffff1673ffffffffffffffffffffffffffffffffffffffff1681526020019060010190808311610641575b5050505050905090565b6105678062000b3383390190565b600080fd5b600073ffffffffffffffffffffffffffffffffffffffff82169050919050565b60006106d3826106a8565b9050919050565b6106e3816106c8565b81146106ee57600080fd5b50565b600081359050610700816106da565b92915050565b6000819050919050565b61071981610706565b811461072457600080fd5b50565b60008135905061073681610710565b92915050565b60008060408385031215610753576107526106a3565b5b6000610761858286016106f1565b925050602061077285828601610727565b9150509250929050565b6000819050919050565b60006107a161079c610797846106a8565b61077c565b6106a8565b9050919050565b60006107b382610786565b9050919050565b60006107c5826107a8565b9050919050565b6107d5816107ba565b82525050565b60006020820190506107f060008301846107cc565b92915050565b600081519050919050565b600082825260208201905092915050565b6000819050602082019050919050565b61082b816107ba565b82525050565b600061083d8383610822565b60208301905092915050565b6000602082019050919050565b6000610861826107f6565b61086b8185610801565b935061087683610812565b8060005b838110156108a757815161088e8882610831565b975061089983610849565b92505060018101905061087a565b5085935050505092915050565b600060208201905081810360008301526108ce8184610856565b905092915050565b60006108e1826107a8565b9050919050565b6108f1816108d6565b82525050565b61090081610706565b82525050565b600060408201905061091b60008301856108e8565b61092860208301846108f7565b9392505050565b7f4e487b7100000000000000000000000000000000000000000000000000000000600052603260045260246000fd5b7f4e487b7100000000000000000000000000000000000000000000000000000000600052601160045260246000fd5b600061099882610706565b91506109a383610706565b92508282039050818111156109bb576109ba61095e565b5b92915050565b60006109cc82610706565b91506109d783610706565b92508282019050808211156109ef576109ee61095e565b5b92915050565b7f4e487b7100000000000000000000000000000000000000000000000000000000600052603160045260246000fd5b600081549050919050565b60008190508160005260206000209050919050565b60008160001c9050919050565b600073ffffffffffffffffffffffffffffffffffffffff82169050919050565b6000610a84610a7f83610a44565b610a51565b9050919050565b6000610a978254610a71565b9050919050565b6000600182019050919050565b6000610ab682610a24565b610ac08185610801565b9350610acb83610a2f565b8060005b83811015610b0357610ae082610a8b565b610aea8882610831565b9750610af583610a9e565b925050600181019050610acf565b5085935050505092915050565b60006020820190508181036000830152610b2a8184610aab565b90509291505056fe60a060405260405161056738038061056783398181016040528101906100259190610152565b3373ffffffffffffffffffffffffffffffffffffffff1660808173ffffffffffffffffffffffffffffffffffffffff1681525050816000806101000a81548173ffffffffffffffffffffffffffffffffffffffff021916908373ffffffffffffffffffffffffffffffffffffffff160217905550806001819055505050610192565b600080fd5b600073ffffffffffffffffffffffffffffffffffffffff82169050919050565b60006100d7826100ac565b9050919050565b60006100e9826100cc565b9050919050565b6100f9816100de565b811461010457600080fd5b50565b600081519050610116816100f0565b92915050565b6000819050919050565b61012f8161011c565b811461013a57600080fd5b50565b60008151905061014c81610126565b92915050565b60008060408385031215610169576101686100a7565b5b600061017785828601610107565b92505060206101888582860161013d565b9150509250929050565b6080516103ad6101ba6000396000818160f00152818161014d01526101f001526103ad6000f3fe60806040526004361061002d5760003560e01c806312065fe0146100a45780633ccfd60b146100cf5761006b565b3661006b577f4d6ce1e535dbade1c23defba91e23b8f791ce5edc0cc320257a2b364e4e384263460405161006191906102b4565b60405180910390a1005b7f4d6ce1e535dbade1c23defba91e23b8f791ce5edc0cc320257a2b364e4e384263460405161009a91906102b4565b60405180910390a1005b3480156100b057600080fd5b506100b96100e6565b6040516100c691906102b4565b60405180910390f35b3480156100db57600080fd5b506100e46100ee565b005b600047905090565b7f000000000000000000000000000000000000000000000000000000000000000073ffffffffffffffffffffffffffffffffffffffff163373ffffffffffffffffffffffffffffffffffffffff161461014657600080fd5b60004790507f000000000000000000000000000000000000000000000000000000000000000073ffffffffffffffffffffffffffffffffffffffff166108fc479081150290604051600060405180830381858888f193505050501580156101b1573d6000803e3d6000fd5b5060008054906101000a900473ffffffffffffffffffffffffffffffffffffffff1673ffffffffffffffffffffffffffffffffffffffff16639d72d71d7f00000000000000000000000000000000000000000000000000000000000000006001546040518363ffffffff1660e01b815260040161022f92919061034e565b600060405180830381600087803b15801561024957600080fd5b505af115801561025d573d6000803e3d6000fd5b505050507f4e70a604b23a8edee2b1d0a656e9b9c00b73ad8bb1afc2c59381ee9f69197de78160405161029091906102b4565b60405180910390a150565b6000819050919050565b6102ae8161029b565b82525050565b60006020820190506102c960008301846102a5565b92915050565b600073ffffffffffffffffffffffffffffffffffffffff82169050919050565b6000819050919050565b600061031461030f61030a846102cf565b6102ef565b6102cf565b9050919050565b6000610326826102f9565b9050919050565b60006103388261031b565b9050919050565b6103488161032d565b82525050565b6000604082019050610363600083018561033f565b61037060208301846102a5565b939250505056fea26469706673582212202bbcc2e8b2c0050a95a529fa0b52ed7c6f153b4067f083511a3cbebb2c46d02464736f6c63430008180033a26469706673582212205b09fb81ac88533d35ff55c2f1ee5a41580006b4dc4d664e8e1822610065fa0964736f6c63430008180033",
  "linkReferences": {},
  "deployedLinkReferences": {}
}