{
  "_format": "hh-sol-artifact-1",
  "contractName": "BoxRegistry",
  "sourceName": "contracts/BoxRegistry.sol",
  "abi": [
    {
      "inputs": [],
      "stateMutability": "payable",
      "type": "constructor"
    },
    {
      "anonymous": false,
      "inputs": [
        {
          "indexed": false,
          "internalType": "contract Box",
          "name": "",
          "type": "address"
        }
      ],
      "name": "BoxCreation",
      "type": "event"
    },
    {
      "anonymous": false,
      "inputs": [
        {
          "indexed": false,
          "internalType": "contract Box[]",
          "name": "",
          "type": "address[]"
        }
      ],
      "name": "BoxList",
      "type": "event"
    },
    {
      "stateMutability": "payable",
      "type": "fallback"
    },
    {
      "inputs": [],
      "name": "createBox",
      "outputs": [],
      "stateMutability": "nonpayable",
      "type": "function"
    },
    {
      "inputs": [],
      "name": "getUserBoxes",
      "outputs": [
        {
          "internalType": "contract Box[]",
          "name": "",
          "type": "address[]"
        }
      ],
      "stateMutability": "nonpayable",
      "type": "function"
    },
    {
      "inputs": [
        {
          "internalType": "address",
          "name": "owner",
          "type": "address"
        }
      ],
      "name": "removeBox",
      "outputs": [],
      "stateMutability": "nonpayable",
      "type": "function"
    },
    {
      "inputs": [
        {
          "internalType": "address",
          "name": "",
          "type": "address"
        },
        {
          "internalType": "uint256",
          "name": "",
          "type": "uint256"
        }
      ],
      "name": "userBoxes",
      "outputs": [
        {
          "internalType": "contract Box",
          "name": "",
          "type": "address"
        }
      ],
      "stateMutability": "view",
      "type": "function"
    },
    {
      "stateMutability": "payable",
      "type": "receive"
    }
  ],
  "bytecode": "0x608060405261137a806100136000396000f3fe608060405260043610620000495760003560e01c80634a7f331c14620000535780637fa767bc1462000097578063ac9a63b014620000b1578063e044b85c14620000df5762000051565b366200005157005b005b3480156200006057600080fd5b506200007f60048036038101906200007991906200082a565b6200010f565b6040516200008e9190620008dc565b60405180910390f35b348015620000a457600080fd5b50620000af6200015e565b005b348015620000be57600080fd5b50620000dd6004803603810190620000d79190620008f9565b62000278565b005b348015620000ec57600080fd5b50620000f762000635565b604051620001069190620009f9565b60405180910390f35b600060205281600052604060002081815481106200012c57600080fd5b906000526020600020016000915091509054906101000a900473ffffffffffffffffffffffffffffffffffffffff1681565b60003033604051620001709062000777565b6200017d92919062000a67565b604051809103906000f0801580156200019a573d6000803e3d6000fd5b5090506000803373ffffffffffffffffffffffffffffffffffffffff1673ffffffffffffffffffffffffffffffffffffffff168152602001908152602001600020819080600181540180825580915050600190039060005260206000200160009091909190916101000a81548173ffffffffffffffffffffffffffffffffffffffff021916908373ffffffffffffffffffffffffffffffffffffffff1602179055507fbcc4c5c2952255c6a081809e5a6d02a6e2a20a67a10d227d125cef3d2ea71231816040516200026d9190620008dc565b60405180910390a150565b60005b6000808373ffffffffffffffffffffffffffffffffffffffff1673ffffffffffffffffffffffffffffffffffffffff16815260200190815260200160002080549050811080156200037557503373ffffffffffffffffffffffffffffffffffffffff166000808473ffffffffffffffffffffffffffffffffffffffff1673ffffffffffffffffffffffffffffffffffffffff168152602001908152602001600020828154811062000331576200033062000a94565b5b9060005260206000200160009054906101000a900473ffffffffffffffffffffffffffffffffffffffff1673ffffffffffffffffffffffffffffffffffffffff1614155b1562000391578080620003889062000af2565b9150506200027b565b6000808373ffffffffffffffffffffffffffffffffffffffff1673ffffffffffffffffffffffffffffffffffffffff16815260200190815260200160002080549050811062000417576040517f08c379a00000000000000000000000000000000000000000000000000000000081526004016200040e9062000ba0565b60405180910390fd5b60008190505b60016000808573ffffffffffffffffffffffffffffffffffffffff1673ffffffffffffffffffffffffffffffffffffffff168152602001908152602001600020805490506200046d919062000bc2565b811015620005aa576000808473ffffffffffffffffffffffffffffffffffffffff1673ffffffffffffffffffffffffffffffffffffffff168152602001908152602001600020600182620004c2919062000bfd565b81548110620004d657620004d562000a94565b5b9060005260206000200160009054906101000a900473ffffffffffffffffffffffffffffffffffffffff166000808573ffffffffffffffffffffffffffffffffffffffff1673ffffffffffffffffffffffffffffffffffffffff168152602001908152602001600020828154811062000554576200055362000a94565b5b9060005260206000200160006101000a81548173ffffffffffffffffffffffffffffffffffffffff021916908373ffffffffffffffffffffffffffffffffffffffff16021790555080806001019150506200041d565b506000808373ffffffffffffffffffffffffffffffffffffffff1673ffffffffffffffffffffffffffffffffffffffff168152602001908152602001600020805480620005fc57620005fb62000c38565b5b6001900381819060005260206000200160006101000a81549073ffffffffffffffffffffffffffffffffffffffff021916905590555050565b60607f7c89a2208887d096eb1beafae9c95cccb7f4d19b91b2daeee27bfe18e1d82b4c6000803373ffffffffffffffffffffffffffffffffffffffff1673ffffffffffffffffffffffffffffffffffffffff168152602001908152602001600020604051620006a5919062000d67565b60405180910390a16000803373ffffffffffffffffffffffffffffffffffffffff1673ffffffffffffffffffffffffffffffffffffffff1681526020019081526020016000208054806020026020016040519081016040528092919081815260200182805480156200076d57602002820191906000526020600020905b8160009054906101000a900473ffffffffffffffffffffffffffffffffffffffff1673ffffffffffffffffffffffffffffffffffffffff168152602001906001019080831162000722575b5050505050905090565b6105b98062000d8c83390190565b600080fd5b600073ffffffffffffffffffffffffffffffffffffffff82169050919050565b6000620007b7826200078a565b9050919050565b620007c981620007aa565b8114620007d557600080fd5b50565b600081359050620007e981620007be565b92915050565b6000819050919050565b6200080481620007ef565b81146200081057600080fd5b50565b6000813590506200082481620007f9565b92915050565b6000806040838503121562000844576200084362000785565b5b60006200085485828601620007d8565b9250506020620008678582860162000813565b9150509250929050565b6000819050919050565b60006200089c6200089662000890846200078a565b62000871565b6200078a565b9050919050565b6000620008b0826200087b565b9050919050565b6000620008c482620008a3565b9050919050565b620008d681620008b7565b82525050565b6000602082019050620008f36000830184620008cb565b92915050565b60006020828403121562000912576200091162000785565b5b60006200092284828501620007d8565b91505092915050565b600081519050919050565b600082825260208201905092915050565b6000819050602082019050919050565b6200096281620008b7565b82525050565b600062000976838362000957565b60208301905092915050565b6000602082019050919050565b60006200099c826200092b565b620009a8818562000936565b9350620009b58362000947565b8060005b83811015620009ec578151620009d0888262000968565b9750620009dd8362000982565b925050600181019050620009b9565b5085935050505092915050565b6000602082019050818103600083015262000a1581846200098f565b905092915050565b600062000a2a82620008a3565b9050919050565b62000a3c8162000a1d565b82525050565b600062000a4f826200078a565b9050919050565b62000a618162000a42565b82525050565b600060408201905062000a7e600083018562000a31565b62000a8d602083018462000a56565b9392505050565b7f4e487b7100000000000000000000000000000000000000000000000000000000600052603260045260246000fd5b7f4e487b7100000000000000000000000000000000000000000000000000000000600052601160045260246000fd5b600062000aff82620007ef565b91507fffffffffffffffffffffffffffffffffffffffffffffffffffffffffffffffff820362000b345762000b3362000ac3565b5b600182019050919050565b600082825260208201905092915050565b7f426f78206e6f7420666f756e6400000000000000000000000000000000000000600082015250565b600062000b88600d8362000b3f565b915062000b958262000b50565b602082019050919050565b6000602082019050818103600083015262000bbb8162000b79565b9050919050565b600062000bcf82620007ef565b915062000bdc83620007ef565b925082820390508181111562000bf75762000bf662000ac3565b5b92915050565b600062000c0a82620007ef565b915062000c1783620007ef565b925082820190508082111562000c325762000c3162000ac3565b5b92915050565b7f4e487b7100000000000000000000000000000000000000000000000000000000600052603160045260246000fd5b600081549050919050565b60008190508160005260206000209050919050565b60008160001c9050919050565b600073ffffffffffffffffffffffffffffffffffffffff82169050919050565b600062000ccb62000cc58362000c87565b62000c94565b9050919050565b600062000ce0825462000cb4565b9050919050565b6000600182019050919050565b600062000d018262000c67565b62000d0d818562000936565b935062000d1a8362000c72565b8060005b8381101562000d5a5762000d328262000cd2565b62000d3e888262000968565b975062000d4b8362000ce7565b92505060018101905062000d1e565b5085935050505092915050565b6000602082019050818103600083015262000d83818462000cf4565b90509291505056fe60a06040526040516105b93803806105b983398181016040528101906100259190610141565b8073ffffffffffffffffffffffffffffffffffffffff1660808173ffffffffffffffffffffffffffffffffffffffff1681525050816000806101000a81548173ffffffffffffffffffffffffffffffffffffffff021916908373ffffffffffffffffffffffffffffffffffffffff1602179055505050610181565b600080fd5b600073ffffffffffffffffffffffffffffffffffffffff82169050919050565b60006100d0826100a5565b9050919050565b60006100e2826100c5565b9050919050565b6100f2816100d7565b81146100fd57600080fd5b50565b60008151905061010f816100e9565b92915050565b61011e816100c5565b811461012957600080fd5b50565b60008151905061013b81610115565b92915050565b60008060408385031215610158576101576100a0565b5b600061016685828601610100565b92505060206101778582860161012c565b9150509250929050565b6080516104106101a96000396000818160b20152818161014501526101e801526104106000f3fe6080604052600436106100225760003560e01c80633ccfd60b1461009957610060565b36610060577f4d6ce1e535dbade1c23defba91e23b8f791ce5edc0cc320257a2b364e4e384263460405161005691906102a8565b60405180910390a1005b7f4d6ce1e535dbade1c23defba91e23b8f791ce5edc0cc320257a2b364e4e384263460405161008f91906102a8565b60405180910390a1005b3480156100a557600080fd5b506100ae6100b0565b005b7f000000000000000000000000000000000000000000000000000000000000000073ffffffffffffffffffffffffffffffffffffffff163373ffffffffffffffffffffffffffffffffffffffff161461013e576040517f08c379a000000000000000000000000000000000000000000000000000000000815260040161013590610320565b60405180910390fd5b60004790507f000000000000000000000000000000000000000000000000000000000000000073ffffffffffffffffffffffffffffffffffffffff166108fc479081150290604051600060405180830381858888f193505050501580156101a9573d6000803e3d6000fd5b5060008054906101000a900473ffffffffffffffffffffffffffffffffffffffff1673ffffffffffffffffffffffffffffffffffffffff1663ac9a63b07f00000000000000000000000000000000000000000000000000000000000000006040518263ffffffff1660e01b815260040161022391906103bf565b600060405180830381600087803b15801561023d57600080fd5b505af1158015610251573d6000803e3d6000fd5b505050507f4e70a604b23a8edee2b1d0a656e9b9c00b73ad8bb1afc2c59381ee9f69197de78160405161028491906102a8565b60405180910390a150565b6000819050919050565b6102a28161028f565b82525050565b60006020820190506102bd6000830184610299565b92915050565b600082825260208201905092915050565b7f4d757374206265206f776e657200000000000000000000000000000000000000600082015250565b600061030a600d836102c3565b9150610315826102d4565b602082019050919050565b60006020820190508181036000830152610339816102fd565b9050919050565b600073ffffffffffffffffffffffffffffffffffffffff82169050919050565b6000819050919050565b600061038561038061037b84610340565b610360565b610340565b9050919050565b60006103978261036a565b9050919050565b60006103a98261038c565b9050919050565b6103b98161039e565b82525050565b60006020820190506103d460008301846103b0565b9291505056fea26469706673582212203433ec9b8eb644a29fbe92bdba03fcaa80e9abb7bdc62144dbeb62976bda8a9e64736f6c63430008180033a26469706673582212206f7bf460e7f4a1739f274f8754df6ee1bd77b009b7183215e9de777e8a01c28364736f6c63430008180033",
  "linkReferences": {},
  "deployedLinkReferences": {}
}